{"level":"verbose","message":"priceUpdate:\n {\"newParamType\":\"price\",\"newParamValue\":{\"value\":\"0x1ca24c6580\",\"ticker\":\"ETH\"},\"txHash\":\"0x0b87bfd16130693e72c221b9fce0d3e6964eee55d493c7e144115a3eb397d055\",\"backrunTxs\":[\"0x02f908740182a2a184773594008521aaae6b8e8307a1209437bc7498f4ff12c19678ee8fe19d713b87f6a9e680b90804c98075390000000000000000000000000000000000000000000000000000000000000080000000000000000000000000000000000000000000000000000000000000050000000000000000000000000000000000000000000000000000000000000006800001000001000000010000000000000000000000000000000000000000000000000000000000000000000000000000000000000000000000000000000000046000000000000000000000009f88d5f42679b75c4a0244716f695ef300015bd5021a040809000d0f1c1b1503020b0e061007120c0514011e19131711181d160a000000000000000000000000000000000000000000000000000000000000000060000000000000000000000000000000000000000000000000000000000000001f0000000000000000000000000000000000000000000000000000001c94f7e9400000000000000000000000000000000000000000000000000000001c965161400000000000000000000000000000000000000000000000000000001c984d54940000000000000000000000000000000000000000000000000000001c99608efd0000000000000000000000000000000000000000000000000000001c99a7df400000000000000000000000000000000000000000000000000000001c9c0a6ee50000000000000000000000000000000000000000000000000000001c9d3b66400000000000000000000000000000000000000000000000000000001c9db578400000000000000000000000000000000000000000000000000000001c9ef893180000000000000000000000000000000000000000000000000000001c9ef893180000000000000000000000000000000000000000000000000000001c9f9638af0000000000000000000000000000000000000000000000000000001ca03badf00000000000000000000000000000000000000000000000000000001ca03badf00000000000000000000000000000000000000000000000000000001ca03badf00000000000000000000000000000000000000000000000000000001ca1e06bf90000000000000000000000000000000000000000000000000000001ca24c65800000000000000000000000000000000000000000000000000000001ca68f66600000000000000000000000000000000000000000000000000000001ca6e352c00000000000000000000000000000000000000000000000000000001caba927e30000000000000000000000000000000000000000000000000000001cac4d8bf30000000000000000000000000000000000000000000000000000001cac4d8bf30000000000000000000000000000000000000000000000000000001cac4d8bf30000000000000000000000000000000000000000000000000000001cac4d8bf30000000000000000000000000000000000000000000000000000001cac90c5d70000000000000000000000000000000000000000000000000000001caed7d3c40000000000000000000000000000000000000000000000000000001cb98b53000000000000000000000000000000000000000000000000000000001cb98b53000000000000000000000000000000000000000000000000000000001cb98b53000000000000000000000000000000000000000000000000000000001cbe8f52460000000000000000000000000000000000000000000000000000001cc07725060000000000000000000000000000000000000000000000000000001cc0772506000000000000000000000000000000000000000000000000000000000000000b92f1190fc21c29f1787d763a0a63cc9f17781992d05244008e53fcfcf995b94a375e968e6cec017b96dac063d04c5774a6c15e433100e760df643afd8ae514ae4b7e2e7b9c0c7f3e70264de372443a26a193b72edf58c6ad04359eca115ce609996632116fc73bd325653ca91636a4ba7411a7c78863d32480259e3bc1dc2ff70e7b365d2e9c2c38db03cb3dc4eb3e6fc896f5e730197332bcac0a908190e91d7e4d854cd4de10e6cb4805d918c9f5967b9d04847a82b88007857cfe5dad69198ecce0bf356d919bda9e07891704bd3a9f3f1cf7aea4576f14510c48e8b5783f57e63373be880d3ad25d45d42bf594eaa6ce1c81a61becaee8e979e8a976a0c4d17371f69420a5a399cc7e1adc287c8acd57b0a6dc542aae4702c5596ed9e437fa747118a26d5d668e94e0cdd11dc6b0a28adc2cc23862914702bd1abedcbd3789f8aaad6e6995562e8333f3f91a41938da6b893eaff3745d8d55edb85760277000000000000000000000000000000000000000000000000000000000000000b4ea54a57124aaa77458af16c1b5941e9e80ac258cd41ab52dd07d56c477800f001dcf954ca36bfb43f73ad84bc317da573548106ec9d999170a59451f8e020f07c1bcf6a08add8b492e00831265a1f4c6cd10ef7cda2e5b2afc9086166f1db812cb1686e51374df374aec867d3e490e4ab2c83e0a45a9c9b8b083289b599ff5e664349eb53e95fe5f42e5af315fe09052a9fed0b555d78bcab9782e18b0b1f9f46463af7542e1b2c66fa5cc1d8e105bbde1ffa0b48c4440611cf50f93767289f3406662ad5291fb4917e648234e3a6772469335d4e7568e86c70030addc311e50b2112c68907c357f75e90bbf1fdc5e4b0e822c41e9f5873e6e436118898a5047b420fa2d43de92e09227eefdd2d3e5137331c51e5ba933a7a51c133f38e3c761cb7b9f85b79a5a5ed35a1e4086d149872be99b0f6b9c7181af3a9bdc5c979df7f685a232898b389c174b50698ec7a351a75de0dcc095fe350f09620601b1076c080a0e7dc6fd152af9f054175b321acb2956b9e517207e2116ae96ea117d7361d8ae2a00addce509965c7bec12c6bfb4c068af39a6927dd6deaba1cebb437ca2d52114e\"]}","timestamp":"2022-06-13 15:08:25"}
{
  accessList: [],
  blockHash: "0x4afaed08f16c67ad22ad48f952e0390aa578bb9e571956236b96e56aa92720a1",
  blockNumber: 14957613,
  chainId: "0x1",
  from: "0xddeb598fe902a13cc523aaff5240e9988edce170",
  gas: 500000,
  gasPrice: 51399749050,
  hash: "0x0b87bfd16130693e72c221b9fce0d3e6964eee55d493c7e144115a3eb397d055",
  input: "0xc98075390000000000000000000000000000000000000000000000000000000000000080000000000000000000000000000000000000000000000000000000000000050000000000000000000000000000000000000000000000000000000000000006800001000001000000010000000000000000000000000000000000000000000000000000000000000000000000000000000000000000000000000000000000046000000000000000000000009f88d5f42679b75c4a0244716f695ef300015bd5021a040809000d0f1c1b1503020b0e061007120c0514011e19131711181d160a000000000000000000000000000000000000000000000000000000000000000060000000000000000000000000000000000000000000000000000000000000001f0000000000000000000000000000000000000000000000000000001c94f7e9400000000000000000000000000000000000000000000000000000001c965161400000000000000000000000000000000000000000000000000000001c984d54940000000000000000000000000000000000000000000000000000001c99608efd0000000000000000000000000000000000000000000000000000001c99a7df400000000000000000000000000000000000000000000000000000001c9c0a6ee50000000000000000000000000000000000000000000000000000001c9d3b66400000000000000000000000000000000000000000000000000000001c9db578400000000000000000000000000000000000000000000000000000001c9ef893180000000000000000000000000000000000000000000000000000001c9ef893180000000000000000000000000000000000000000000000000000001c9f9638af0000000000000000000000000000000000000000000000000000001ca03badf00000000000000000000000000000000000000000000000000000001ca03badf00000000000000000000000000000000000000000000000000000001ca03badf00000000000000000000000000000000000000000000000000000001ca1e06bf90000000000000000000000000000000000000000000000000000001ca24c65800000000000000000000000000000000000000000000000000000001ca68f66600000000000000000000000000000000000000000000000000000001ca6e352c00000000000000000000000000000000000000000000000000000001caba927e30000000000000000000000000000000000000000000000000000001cac4d8bf30000000000000000000000000000000000000000000000000000001cac4d8bf30000000000000000000000000000000000000000000000000000001cac4d8bf30000000000000000000000000000000000000000000000000000001cac4d8bf30000000000000000000000000000000000000000000000000000001cac90c5d70000000000000000000000000000000000000000000000000000001caed7d3c40000000000000000000000000000000000000000000000000000001cb98b53000000000000000000000000000000000000000000000000000000001cb98b53000000000000000000000000000000000000000000000000000000001cb98b53000000000000000000000000000000000000000000000000000000001cbe8f52460000000000000000000000000000000000000000000000000000001cc07725060000000000000000000000000000000000000000000000000000001cc0772506000000000000000000000000000000000000000000000000000000000000000b92f1190fc21c29f1787d763a0a63cc9f17781992d05244008e53fcfcf995b94a375e968e6cec017b96dac063d04c5774a6c15e433100e760df643afd8ae514ae4b7e2e7b9c0c7f3e70264de372443a26a193b72edf58c6ad04359eca115ce609996632116fc73bd325653ca91636a4ba7411a7c78863d32480259e3bc1dc2ff70e7b365d2e9c2c38db03cb3dc4eb3e6fc896f5e730197332bcac0a908190e91d7e4d854cd4de10e6cb4805d918c9f5967b9d04847a82b88007857cfe5dad69198ecce0bf356d919bda9e07891704bd3a9f3f1cf7aea4576f14510c48e8b5783f57e63373be880d3ad25d45d42bf594eaa6ce1c81a61becaee8e979e8a976a0c4d17371f69420a5a399cc7e1adc287c8acd57b0a6dc542aae4702c5596ed9e437fa747118a26d5d668e94e0cdd11dc6b0a28adc2cc23862914702bd1abedcbd3789f8aaad6e6995562e8333f3f91a41938da6b893eaff3745d8d55edb85760277000000000000000000000000000000000000000000000000000000000000000b4ea54a57124aaa77458af16c1b5941e9e80ac258cd41ab52dd07d56c477800f001dcf954ca36bfb43f73ad84bc317da573548106ec9d999170a59451f8e020f07c1bcf6a08add8b492e00831265a1f4c6cd10ef7cda2e5b2afc9086166f1db812cb1686e51374df374aec867d3e490e4ab2c83e0a45a9c9b8b083289b599ff5e664349eb53e95fe5f42e5af315fe09052a9fed0b555d78bcab9782e18b0b1f9f46463af7542e1b2c66fa5cc1d8e105bbde1ffa0b48c4440611cf50f93767289f3406662ad5291fb4917e648234e3a6772469335d4e7568e86c70030addc311e50b2112c68907c357f75e90bbf1fdc5e4b0e822c41e9f5873e6e436118898a5047b420fa2d43de92e09227eefdd2d3e5137331c51e5ba933a7a51c133f38e3c761cb7b9f85b79a5a5ed35a1e4086d149872be99b0f6b9c7181af3a9bdc5c979df7f685a232898b389c174b50698ec7a351a75de0dcc095fe350f09620601b1076",
  maxFeePerGas: 144597478286,
  maxPriorityFeePerGas: 2000000000,
  nonce: 41633,
  r: "0xe7dc6fd152af9f054175b321acb2956b9e517207e2116ae96ea117d7361d8ae2",
  s: "0xaddce509965c7bec12c6bfb4c068af39a6927dd6deaba1cebb437ca2d52114e",
  to: "0x37bc7498f4ff12c19678ee8fe19d713b87f6a9e6",
  transactionIndex: 120,
  type: "0x2",
  v: "0x0",
  value: 0
}